{
  "_format": "hh-sol-artifact-1",
  "contractName": "RewardManager",
  "sourceName": "contracts/RewardManager.sol",
  "abi": [
    {
      "inputs": [
        {
          "internalType": "address",
          "name": "_vibeTokenAddress",
          "type": "address"
        }
      ],
      "stateMutability": "nonpayable",
      "type": "constructor"
    },
    {
      "anonymous": false,
      "inputs": [
        {
          "indexed": true,
          "internalType": "address",
          "name": "user",
          "type": "address"
        },
        {
          "indexed": false,
          "internalType": "uint256",
          "name": "amount",
          "type": "uint256"
        }
      ],
      "name": "TokensMinted",
      "type": "event"
    },
    {
      "inputs": [],
      "name": "owner",
      "outputs": [
        {
          "internalType": "address",
          "name": "",
          "type": "address"
        }
      ],
      "stateMutability": "view",
      "type": "function"
    },
    {
      "inputs": [
        {
          "internalType": "address",
          "name": "user",
          "type": "address"
        },
        {
          "internalType": "uint256",
          "name": "sentimentScore",
          "type": "uint256"
        }
      ],
      "name": "rewardUser",
      "outputs": [],
      "stateMutability": "nonpayable",
      "type": "function"
    },
    {
      "inputs": [],
      "name": "vibeToken",
      "outputs": [
        {
          "internalType": "contract VibeToken",
          "name": "",
          "type": "address"
        }
      ],
      "stateMutability": "view",
      "type": "function"
    }
  ],
  "bytecode": "0x608060405234801561001057600080fd5b506040516107853803806107858339818101604052810190610032919061011c565b806000806101000a81548173ffffffffffffffffffffffffffffffffffffffff021916908373ffffffffffffffffffffffffffffffffffffffff16021790555033600160006101000a81548173ffffffffffffffffffffffffffffffffffffffff021916908373ffffffffffffffffffffffffffffffffffffffff16021790555050610149565b600080fd5b600073ffffffffffffffffffffffffffffffffffffffff82169050919050565b60006100e9826100be565b9050919050565b6100f9816100de565b811461010457600080fd5b50565b600081519050610116816100f0565b92915050565b600060208284031215610132576101316100b9565b5b600061014084828501610107565b91505092915050565b61062d806101586000396000f3fe608060405234801561001057600080fd5b50600436106100415760003560e01c80638da5cb5b14610046578063e4e103dc14610064578063efe5a15d14610080575b600080fd5b61004e61009e565b60405161005b919061030e565b60405180910390f35b61007e60048036038101906100799190610390565b6100c4565b005b6100886102a9565b604051610095919061042f565b60405180910390f35b600160009054906101000a900473ffffffffffffffffffffffffffffffffffffffff1681565b600160009054906101000a900473ffffffffffffffffffffffffffffffffffffffff1673ffffffffffffffffffffffffffffffffffffffff163373ffffffffffffffffffffffffffffffffffffffff1614610154576040517f08c379a000000000000000000000000000000000000000000000000000000000815260040161014b906104a7565b60405180910390fd5b60008110158015610166575060018111155b6101a5576040517f08c379a000000000000000000000000000000000000000000000000000000000815260040161019c90610513565b60405180910390fd5b6000670de0b6b3a7640000600a836101bd9190610562565b6101c79190610562565b905060008054906101000a900473ffffffffffffffffffffffffffffffffffffffff1673ffffffffffffffffffffffffffffffffffffffff166340c10f1984836040518363ffffffff1660e01b81526004016102249291906105b3565b600060405180830381600087803b15801561023e57600080fd5b505af1158015610252573d6000803e3d6000fd5b505050508273ffffffffffffffffffffffffffffffffffffffff167f3f2c9d57c068687834f0de942a9babb9e5acab57d516d3480a3c16ee165a42738260405161029c91906105dc565b60405180910390a2505050565b60008054906101000a900473ffffffffffffffffffffffffffffffffffffffff1681565b600073ffffffffffffffffffffffffffffffffffffffff82169050919050565b60006102f8826102cd565b9050919050565b610308816102ed565b82525050565b600060208201905061032360008301846102ff565b92915050565b600080fd5b610337816102ed565b811461034257600080fd5b50565b6000813590506103548161032e565b92915050565b6000819050919050565b61036d8161035a565b811461037857600080fd5b50565b60008135905061038a81610364565b92915050565b600080604083850312156103a7576103a6610329565b5b60006103b585828601610345565b92505060206103c68582860161037b565b9150509250929050565b6000819050919050565b60006103f56103f06103eb846102cd565b6103d0565b6102cd565b9050919050565b6000610407826103da565b9050919050565b6000610419826103fc565b9050919050565b6104298161040e565b82525050565b60006020820190506104446000830184610420565b92915050565b600082825260208201905092915050565b7f4e6f7420617574686f72697a6564000000000000000000000000000000000000600082015250565b6000610491600e8361044a565b915061049c8261045b565b602082019050919050565b600060208201905081810360008301526104c081610484565b9050919050565b7f496e76616c69642073636f726500000000000000000000000000000000000000600082015250565b60006104fd600d8361044a565b9150610508826104c7565b602082019050919050565b6000602082019050818103600083015261052c816104f0565b9050919050565b7f4e487b7100000000000000000000000000000000000000000000000000000000600052601160045260246000fd5b600061056d8261035a565b91506105788361035a565b92508282026105868161035a565b9150828204841483151761059d5761059c610533565b5b5092915050565b6105ad8161035a565b82525050565b60006040820190506105c860008301856102ff565b6105d560208301846105a4565b9392505050565b60006020820190506105f160008301846105a4565b9291505056fea2646970667358221220bf074ebdeaf7994c24664bc8b288a70e420daebb9d45fef828c3b58bae437ab564736f6c634300081c0033",
  "linkReferences": {},
  "deployedLinkReferences": {}
}