{
  "_format": "hh-sol-artifact-1",
  "contractName": "Redemption",
  "sourceName": "contracts/Redemption.sol",
  "abi": [
    {
      "inputs": [
        {
          "internalType": "address",
          "name": "_vibeTokenAddress",
          "type": "address"
        }
      ],
      "stateMutability": "nonpayable",
      "type": "constructor"
    },
    {
      "anonymous": false,
      "inputs": [
        {
          "indexed": true,
          "internalType": "address",
          "name": "user",
          "type": "address"
        },
        {
          "indexed": false,
          "internalType": "uint256",
          "name": "amount",
          "type": "uint256"
        },
        {
          "indexed": false,
          "internalType": "string",
          "name": "reward",
          "type": "string"
        }
      ],
      "name": "TokensRedeemed",
      "type": "event"
    },
    {
      "inputs": [],
      "name": "admin",
      "outputs": [
        {
          "internalType": "address",
          "name": "",
          "type": "address"
        }
      ],
      "stateMutability": "view",
      "type": "function"
    },
    {
      "inputs": [
        {
          "internalType": "uint256",
          "name": "amount",
          "type": "uint256"
        },
        {
          "internalType": "string",
          "name": "reward",
          "type": "string"
        }
      ],
      "name": "redeemTokens",
      "outputs": [],
      "stateMutability": "nonpayable",
      "type": "function"
    },
    {
      "inputs": [],
      "name": "vibeToken",
      "outputs": [
        {
          "internalType": "contract VibeToken",
          "name": "",
          "type": "address"
        }
      ],
      "stateMutability": "view",
      "type": "function"
    }
  ],
  "bytecode": "0x608060405234801561001057600080fd5b506040516109333803806109338339818101604052810190610032919061011c565b806000806101000a81548173ffffffffffffffffffffffffffffffffffffffff021916908373ffffffffffffffffffffffffffffffffffffffff16021790555033600160006101000a81548173ffffffffffffffffffffffffffffffffffffffff021916908373ffffffffffffffffffffffffffffffffffffffff16021790555050610149565b600080fd5b600073ffffffffffffffffffffffffffffffffffffffff82169050919050565b60006100e9826100be565b9050919050565b6100f9816100de565b811461010457600080fd5b50565b600081519050610116816100f0565b92915050565b600060208284031215610132576101316100b9565b5b600061014084828501610107565b91505092915050565b6107db806101586000396000f3fe608060405234801561001057600080fd5b50600436106100415760003560e01c806317dccbbc14610046578063efe5a15d14610062578063f851a44014610080575b600080fd5b610060600480360381019061005b919061046b565b61009e565b005b61006a610291565b6040516100779190610546565b60405180910390f35b6100886102b5565b6040516100959190610582565b60405180910390f35b8160008054906101000a900473ffffffffffffffffffffffffffffffffffffffff1673ffffffffffffffffffffffffffffffffffffffff166370a08231336040518263ffffffff1660e01b81526004016100f89190610582565b602060405180830381865afa158015610115573d6000803e3d6000fd5b505050506040513d601f19601f8201168201806040525081019061013991906105b2565b101561017a576040517f08c379a00000000000000000000000000000000000000000000000000000000081526004016101719061063c565b60405180910390fd5b60008054906101000a900473ffffffffffffffffffffffffffffffffffffffff1673ffffffffffffffffffffffffffffffffffffffff166323b872dd33600160009054906101000a900473ffffffffffffffffffffffffffffffffffffffff16856040518463ffffffff1660e01b81526004016101f99392919061066b565b6020604051808303816000875af1158015610218573d6000803e3d6000fd5b505050506040513d601f19601f8201168201806040525081019061023c91906106da565b503373ffffffffffffffffffffffffffffffffffffffff167f840b44fdbcb5cc554d649d4eff35e951766f31d646497b364a9cd6d6677d3e148383604051610285929190610775565b60405180910390a25050565b60008054906101000a900473ffffffffffffffffffffffffffffffffffffffff1681565b600160009054906101000a900473ffffffffffffffffffffffffffffffffffffffff1681565b6000604051905090565b600080fd5b600080fd5b6000819050919050565b610302816102ef565b811461030d57600080fd5b50565b60008135905061031f816102f9565b92915050565b600080fd5b600080fd5b6000601f19601f8301169050919050565b7f4e487b7100000000000000000000000000000000000000000000000000000000600052604160045260246000fd5b6103788261032f565b810181811067ffffffffffffffff8211171561039757610396610340565b5b80604052505050565b60006103aa6102db565b90506103b6828261036f565b919050565b600067ffffffffffffffff8211156103d6576103d5610340565b5b6103df8261032f565b9050602081019050919050565b82818337600083830152505050565b600061040e610409846103bb565b6103a0565b90508281526020810184848401111561042a5761042961032a565b5b6104358482856103ec565b509392505050565b600082601f83011261045257610451610325565b5b81356104628482602086016103fb565b91505092915050565b60008060408385031215610482576104816102e5565b5b600061049085828601610310565b925050602083013567ffffffffffffffff8111156104b1576104b06102ea565b5b6104bd8582860161043d565b9150509250929050565b600073ffffffffffffffffffffffffffffffffffffffff82169050919050565b6000819050919050565b600061050c610507610502846104c7565b6104e7565b6104c7565b9050919050565b600061051e826104f1565b9050919050565b600061053082610513565b9050919050565b61054081610525565b82525050565b600060208201905061055b6000830184610537565b92915050565b600061056c826104c7565b9050919050565b61057c81610561565b82525050565b60006020820190506105976000830184610573565b92915050565b6000815190506105ac816102f9565b92915050565b6000602082840312156105c8576105c76102e5565b5b60006105d68482850161059d565b91505092915050565b600082825260208201905092915050565b7f496e73756666696369656e742062616c616e6365000000000000000000000000600082015250565b60006106266014836105df565b9150610631826105f0565b602082019050919050565b6000602082019050818103600083015261065581610619565b9050919050565b610665816102ef565b82525050565b60006060820190506106806000830186610573565b61068d6020830185610573565b61069a604083018461065c565b949350505050565b60008115159050919050565b6106b7816106a2565b81146106c257600080fd5b50565b6000815190506106d4816106ae565b92915050565b6000602082840312156106f0576106ef6102e5565b5b60006106fe848285016106c5565b91505092915050565b600081519050919050565b60005b83811015610730578082015181840152602081019050610715565b60008484015250505050565b600061074782610707565b61075181856105df565b9350610761818560208601610712565b61076a8161032f565b840191505092915050565b600060408201905061078a600083018561065c565b818103602083015261079c818461073c565b9050939250505056fea2646970667358221220978081669d519a16654e5c27d433a29dd11c95269151ba50f3742a01b099762964736f6c634300081c0033",
  "linkReferences": {},
  "deployedLinkReferences": {}
}