{
  "_format": "hh-sol-artifact-1",
  "contractName": "VibeToken",
  "sourceName": "contracts/VibeToken.sol",
  "abi": [
    {
      "inputs": [],
      "stateMutability": "nonpayable",
      "type": "constructor"
    },
    {
      "inputs": [
        {
          "internalType": "address",
          "name": "spender",
          "type": "address"
        },
        {
          "internalType": "uint256",
          "name": "allowance",
          "type": "uint256"
        },
        {
          "internalType": "uint256",
          "name": "needed",
          "type": "uint256"
        }
      ],
      "name": "ERC20InsufficientAllowance",
      "type": "error"
    },
    {
      "inputs": [
        {
          "internalType": "address",
          "name": "sender",
          "type": "address"
        },
        {
          "internalType": "uint256",
          "name": "balance",
          "type": "uint256"
        },
        {
          "internalType": "uint256",
          "name": "needed",
          "type": "uint256"
        }
      ],
      "name": "ERC20InsufficientBalance",
      "type": "error"
    },
    {
      "inputs": [
        {
          "internalType": "address",
          "name": "approver",
          "type": "address"
        }
      ],
      "name": "ERC20InvalidApprover",
      "type": "error"
    },
    {
      "inputs": [
        {
          "internalType": "address",
          "name": "receiver",
          "type": "address"
        }
      ],
      "name": "ERC20InvalidReceiver",
      "type": "error"
    },
    {
      "inputs": [
        {
          "internalType": "address",
          "name": "sender",
          "type": "address"
        }
      ],
      "name": "ERC20InvalidSender",
      "type": "error"
    },
    {
      "inputs": [
        {
          "internalType": "address",
          "name": "spender",
          "type": "address"
        }
      ],
      "name": "ERC20InvalidSpender",
      "type": "error"
    },
    {
      "inputs": [
        {
          "internalType": "address",
          "name": "owner",
          "type": "address"
        }
      ],
      "name": "OwnableInvalidOwner",
      "type": "error"
    },
    {
      "inputs": [
        {
          "internalType": "address",
          "name": "account",
          "type": "address"
        }
      ],
      "name": "OwnableUnauthorizedAccount",
      "type": "error"
    },
    {
      "anonymous": false,
      "inputs": [
        {
          "indexed": true,
          "internalType": "address",
          "name": "owner",
          "type": "address"
        },
        {
          "indexed": true,
          "internalType": "address",
          "name": "spender",
          "type": "address"
        },
        {
          "indexed": false,
          "internalType": "uint256",
          "name": "value",
          "type": "uint256"
        }
      ],
      "name": "Approval",
      "type": "event"
    },
    {
      "anonymous": false,
      "inputs": [
        {
          "indexed": true,
          "internalType": "address",
          "name": "previousOwner",
          "type": "address"
        },
        {
          "indexed": true,
          "internalType": "address",
          "name": "newOwner",
          "type": "address"
        }
      ],
      "name": "OwnershipTransferred",
      "type": "event"
    },
    {
      "anonymous": false,
      "inputs": [
        {
          "indexed": true,
          "internalType": "address",
          "name": "from",
          "type": "address"
        },
        {
          "indexed": true,
          "internalType": "address",
          "name": "to",
          "type": "address"
        },
        {
          "indexed": false,
          "internalType": "uint256",
          "name": "value",
          "type": "uint256"
        }
      ],
      "name": "Transfer",
      "type": "event"
    },
    {
      "inputs": [
        {
          "internalType": "address",
          "name": "owner",
          "type": "address"
        },
        {
          "internalType": "address",
          "name": "spender",
          "type": "address"
        }
      ],
      "name": "allowance",
      "outputs": [
        {
          "internalType": "uint256",
          "name": "",
          "type": "uint256"
        }
      ],
      "stateMutability": "view",
      "type": "function"
    },
    {
      "inputs": [
        {
          "internalType": "address",
          "name": "spender",
          "type": "address"
        },
        {
          "internalType": "uint256",
          "name": "value",
          "type": "uint256"
        }
      ],
      "name": "approve",
      "outputs": [
        {
          "internalType": "bool",
          "name": "",
          "type": "bool"
        }
      ],
      "stateMutability": "nonpayable",
      "type": "function"
    },
    {
      "inputs": [
        {
          "internalType": "address",
          "name": "account",
          "type": "address"
        }
      ],
      "name": "balanceOf",
      "outputs": [
        {
          "internalType": "uint256",
          "name": "",
          "type": "uint256"
        }
      ],
      "stateMutability": "view",
      "type": "function"
    },
    {
      "inputs": [
        {
          "internalType": "uint256",
          "name": "amount",
          "type": "uint256"
        }
      ],
      "name": "burn",
      "outputs": [],
      "stateMutability": "nonpayable",
      "type": "function"
    },
    {
      "inputs": [],
      "name": "decimals",
      "outputs": [
        {
          "internalType": "uint8",
          "name": "",
          "type": "uint8"
        }
      ],
      "stateMutability": "view",
      "type": "function"
    },
    {
      "inputs": [],
      "name": "maxSupply",
      "outputs": [
        {
          "internalType": "uint256",
          "name": "",
          "type": "uint256"
        }
      ],
      "stateMutability": "view",
      "type": "function"
    },
    {
      "inputs": [
        {
          "internalType": "address",
          "name": "to",
          "type": "address"
        },
        {
          "internalType": "uint256",
          "name": "amount",
          "type": "uint256"
        }
      ],
      "name": "mint",
      "outputs": [],
      "stateMutability": "nonpayable",
      "type": "function"
    },
    {
      "inputs": [],
      "name": "name",
      "outputs": [
        {
          "internalType": "string",
          "name": "",
          "type": "string"
        }
      ],
      "stateMutability": "view",
      "type": "function"
    },
    {
      "inputs": [],
      "name": "owner",
      "outputs": [
        {
          "internalType": "address",
          "name": "",
          "type": "address"
        }
      ],
      "stateMutability": "view",
      "type": "function"
    },
    {
      "inputs": [],
      "name": "renounceOwnership",
      "outputs": [],
      "stateMutability": "nonpayable",
      "type": "function"
    },
    {
      "inputs": [],
      "name": "symbol",
      "outputs": [
        {
          "internalType": "string",
          "name": "",
          "type": "string"
        }
      ],
      "stateMutability": "view",
      "type": "function"
    },
    {
      "inputs": [],
      "name": "totalSupply",
      "outputs": [
        {
          "internalType": "uint256",
          "name": "",
          "type": "uint256"
        }
      ],
      "stateMutability": "view",
      "type": "function"
    },
    {
      "inputs": [
        {
          "internalType": "address",
          "name": "to",
          "type": "address"
        },
        {
          "internalType": "uint256",
          "name": "value",
          "type": "uint256"
        }
      ],
      "name": "transfer",
      "outputs": [
        {
          "internalType": "bool",
          "name": "",
          "type": "bool"
        }
      ],
      "stateMutability": "nonpayable",
      "type": "function"
    },
    {
      "inputs": [
        {
          "internalType": "address",
          "name": "from",
          "type": "address"
        },
        {
          "internalType": "address",
          "name": "to",
          "type": "address"
        },
        {
          "internalType": "uint256",
          "name": "value",
          "type": "uint256"
        }
      ],
      "name": "transferFrom",
      "outputs": [
        {
          "internalType": "bool",
          "name": "",
          "type": "bool"
        }
      ],
      "stateMutability": "nonpayable",
      "type": "function"
    },
    {
      "inputs": [
        {
          "internalType": "address",
          "name": "newOwner",
          "type": "address"
        }
      ],
      "name": "transferOwnership",
      "outputs": [],
      "stateMutability": "nonpayable",
      "type": "function"
    }
  ],
  "bytecode": "0x60a06040526a084595161401484a00000060809081525034801561002257600080fd5b50336040518060400160405280600981526020017f56696265536861726500000000000000000000000000000000000000000000008152506040518060400160405280600481526020017f5649424500000000000000000000000000000000000000000000000000000000815250816003908161009f919061071c565b5080600490816100af919061071c565b505050600073ffffffffffffffffffffffffffffffffffffffff168173ffffffffffffffffffffffffffffffffffffffff16036101245760006040517f1e4fbdf700000000000000000000000000000000000000000000000000000000815260040161011b919061082f565b60405180910390fd5b6101338161015960201b60201c565b50600069d3c21bcecceda10000009050610153338261021f60201b60201c565b5061090e565b6000600560009054906101000a900473ffffffffffffffffffffffffffffffffffffffff16905081600560006101000a81548173ffffffffffffffffffffffffffffffffffffffff021916908373ffffffffffffffffffffffffffffffffffffffff1602179055508173ffffffffffffffffffffffffffffffffffffffff168173ffffffffffffffffffffffffffffffffffffffff167f8be0079c531659141344cd1fd0a4f28419497f9722a3daafe3b4186f6b6457e060405160405180910390a35050565b600073ffffffffffffffffffffffffffffffffffffffff168273ffffffffffffffffffffffffffffffffffffffff16036102915760006040517fec442f05000000000000000000000000000000000000000000000000000000008152600401610288919061082f565b60405180910390fd5b6102a3600083836102a760201b60201c565b5050565b600073ffffffffffffffffffffffffffffffffffffffff168373ffffffffffffffffffffffffffffffffffffffff16036102f95780600260008282546102ed9190610879565b925050819055506103cc565b60008060008573ffffffffffffffffffffffffffffffffffffffff1673ffffffffffffffffffffffffffffffffffffffff16815260200190815260200160002054905081811015610385578381836040517fe450d38c00000000000000000000000000000000000000000000000000000000815260040161037c939291906108bc565b60405180910390fd5b8181036000808673ffffffffffffffffffffffffffffffffffffffff1673ffffffffffffffffffffffffffffffffffffffff16815260200190815260200160002081905550505b600073ffffffffffffffffffffffffffffffffffffffff168273ffffffffffffffffffffffffffffffffffffffff16036104155780600260008282540392505081905550610462565b806000808473ffffffffffffffffffffffffffffffffffffffff1673ffffffffffffffffffffffffffffffffffffffff168152602001908152602001600020600082825401925050819055505b8173ffffffffffffffffffffffffffffffffffffffff168373ffffffffffffffffffffffffffffffffffffffff167fddf252ad1be2c89b69c2b068fc378daa952ba7f163c4a11628f55a4df523b3ef836040516104bf91906108f3565b60405180910390a3505050565b600081519050919050565b7f4e487b7100000000000000000000000000000000000000000000000000000000600052604160045260246000fd5b7f4e487b7100000000000000000000000000000000000000000000000000000000600052602260045260246000fd5b6000600282049050600182168061054d57607f821691505b6020821081036105605761055f610506565b5b50919050565b60008190508160005260206000209050919050565b60006020601f8301049050919050565b600082821b905092915050565b6000600883026105c87fffffffffffffffffffffffffffffffffffffffffffffffffffffffffffffffff8261058b565b6105d2868361058b565b95508019841693508086168417925050509392505050565b6000819050919050565b6000819050919050565b600061061961061461060f846105ea565b6105f4565b6105ea565b9050919050565b6000819050919050565b610633836105fe565b61064761063f82610620565b848454610598565b825550505050565b600090565b61065c61064f565b61066781848461062a565b505050565b5b8181101561068b57610680600082610654565b60018101905061066d565b5050565b601f8211156106d0576106a181610566565b6106aa8461057b565b810160208510156106b9578190505b6106cd6106c58561057b565b83018261066c565b50505b505050565b600082821c905092915050565b60006106f3600019846008026106d5565b1980831691505092915050565b600061070c83836106e2565b9150826002028217905092915050565b610725826104cc565b67ffffffffffffffff81111561073e5761073d6104d7565b5b6107488254610535565b61075382828561068f565b600060209050601f8311600181146107865760008415610774578287015190505b61077e8582610700565b8655506107e6565b601f19841661079486610566565b60005b828110156107bc57848901518255600182019150602085019450602081019050610797565b868310156107d957848901516107d5601f8916826106e2565b8355505b6001600288020188555050505b505050505050565b600073ffffffffffffffffffffffffffffffffffffffff82169050919050565b6000610819826107ee565b9050919050565b6108298161080e565b82525050565b60006020820190506108446000830184610820565b92915050565b7f4e487b7100000000000000000000000000000000000000000000000000000000600052601160045260246000fd5b6000610884826105ea565b915061088f836105ea565b92508282019050808211156108a7576108a661084a565b5b92915050565b6108b6816105ea565b82525050565b60006060820190506108d16000830186610820565b6108de60208301856108ad565b6108eb60408301846108ad565b949350505050565b600060208201905061090860008301846108ad565b92915050565b6080516113bc610930600039600081816103fd01526105c801526113bc6000f3fe608060405234801561001057600080fd5b50600436106100f55760003560e01c806370a0823111610097578063a9059cbb11610066578063a9059cbb14610262578063d5abeb0114610292578063dd62ed3e146102b0578063f2fde38b146102e0576100f5565b806370a08231146101ec578063715018a61461021c5780638da5cb5b1461022657806395d89b4114610244576100f5565b806323b872dd116100d357806323b872dd14610166578063313ce5671461019657806340c10f19146101b457806342966c68146101d0576100f5565b806306fdde03146100fa578063095ea7b31461011857806318160ddd14610148575b600080fd5b6101026102fc565b60405161010f9190610f77565b60405180910390f35b610132600480360381019061012d9190611032565b61038e565b60405161013f919061108d565b60405180910390f35b6101506103b1565b60405161015d91906110b7565b60405180910390f35b610180600480360381019061017b91906110d2565b6103bb565b60405161018d919061108d565b60405180910390f35b61019e6103ea565b6040516101ab9190611141565b60405180910390f35b6101ce60048036038101906101c99190611032565b6103f3565b005b6101ea60048036038101906101e5919061115c565b61047e565b005b61020660048036038101906102019190611189565b61048b565b60405161021391906110b7565b60405180910390f35b6102246104d3565b005b61022e6104e7565b60405161023b91906111c5565b60405180910390f35b61024c610511565b6040516102599190610f77565b60405180910390f35b61027c60048036038101906102779190611032565b6105a3565b604051610289919061108d565b60405180910390f35b61029a6105c6565b6040516102a791906110b7565b60405180910390f35b6102ca60048036038101906102c591906111e0565b6105ea565b6040516102d791906110b7565b60405180910390f35b6102fa60048036038101906102f59190611189565b610671565b005b60606003805461030b9061124f565b80601f01602080910402602001604051908101604052809291908181526020018280546103379061124f565b80156103845780601f1061035957610100808354040283529160200191610384565b820191906000526020600020905b81548152906001019060200180831161036757829003601f168201915b5050505050905090565b6000806103996106f7565b90506103a68185856106ff565b600191505092915050565b6000600254905090565b6000806103c66106f7565b90506103d3858285610711565b6103de8585856107a6565b60019150509392505050565b60006012905090565b6103fb61089a565b7f0000000000000000000000000000000000000000000000000000000000000000816104256103b1565b61042f91906112af565b1115610470576040517f08c379a00000000000000000000000000000000000000000000000000000000081526004016104679061132f565b60405180910390fd5b61047a8282610921565b5050565b61048833826109a3565b50565b60008060008373ffffffffffffffffffffffffffffffffffffffff1673ffffffffffffffffffffffffffffffffffffffff168152602001908152602001600020549050919050565b6104db61089a565b6104e56000610a25565b565b6000600560009054906101000a900473ffffffffffffffffffffffffffffffffffffffff16905090565b6060600480546105209061124f565b80601f016020809104026020016040519081016040528092919081815260200182805461054c9061124f565b80156105995780601f1061056e57610100808354040283529160200191610599565b820191906000526020600020905b81548152906001019060200180831161057c57829003601f168201915b5050505050905090565b6000806105ae6106f7565b90506105bb8185856107a6565b600191505092915050565b7f000000000000000000000000000000000000000000000000000000000000000081565b6000600160008473ffffffffffffffffffffffffffffffffffffffff1673ffffffffffffffffffffffffffffffffffffffff16815260200190815260200160002060008373ffffffffffffffffffffffffffffffffffffffff1673ffffffffffffffffffffffffffffffffffffffff16815260200190815260200160002054905092915050565b61067961089a565b600073ffffffffffffffffffffffffffffffffffffffff168173ffffffffffffffffffffffffffffffffffffffff16036106eb5760006040517f1e4fbdf70000000000000000000000000000000000000000000000000000000081526004016106e291906111c5565b60405180910390fd5b6106f481610a25565b50565b600033905090565b61070c8383836001610aeb565b505050565b600061071d84846105ea565b90507fffffffffffffffffffffffffffffffffffffffffffffffffffffffffffffffff8110156107a05781811015610790578281836040517ffb8f41b20000000000000000000000000000000000000000000000000000000081526004016107879392919061134f565b60405180910390fd5b61079f84848484036000610aeb565b5b50505050565b600073ffffffffffffffffffffffffffffffffffffffff168373ffffffffffffffffffffffffffffffffffffffff16036108185760006040517f96c6fd1e00000000000000000000000000000000000000000000000000000000815260040161080f91906111c5565b60405180910390fd5b600073ffffffffffffffffffffffffffffffffffffffff168273ffffffffffffffffffffffffffffffffffffffff160361088a5760006040517fec442f0500000000000000000000000000000000000000000000000000000000815260040161088191906111c5565b60405180910390fd5b610895838383610cc2565b505050565b6108a26106f7565b73ffffffffffffffffffffffffffffffffffffffff166108c06104e7565b73ffffffffffffffffffffffffffffffffffffffff161461091f576108e36106f7565b6040517f118cdaa700000000000000000000000000000000000000000000000000000000815260040161091691906111c5565b60405180910390fd5b565b600073ffffffffffffffffffffffffffffffffffffffff168273ffffffffffffffffffffffffffffffffffffffff16036109935760006040517fec442f0500000000000000000000000000000000000000000000000000000000815260040161098a91906111c5565b60405180910390fd5b61099f60008383610cc2565b5050565b600073ffffffffffffffffffffffffffffffffffffffff168273ffffffffffffffffffffffffffffffffffffffff1603610a155760006040517f96c6fd1e000000000000000000000000000000000000000000000000000000008152600401610a0c91906111c5565b60405180910390fd5b610a2182600083610cc2565b5050565b6000600560009054906101000a900473ffffffffffffffffffffffffffffffffffffffff16905081600560006101000a81548173ffffffffffffffffffffffffffffffffffffffff021916908373ffffffffffffffffffffffffffffffffffffffff1602179055508173ffffffffffffffffffffffffffffffffffffffff168173ffffffffffffffffffffffffffffffffffffffff167f8be0079c531659141344cd1fd0a4f28419497f9722a3daafe3b4186f6b6457e060405160405180910390a35050565b600073ffffffffffffffffffffffffffffffffffffffff168473ffffffffffffffffffffffffffffffffffffffff1603610b5d5760006040517fe602df05000000000000000000000000000000000000000000000000000000008152600401610b5491906111c5565b60405180910390fd5b600073ffffffffffffffffffffffffffffffffffffffff168373ffffffffffffffffffffffffffffffffffffffff1603610bcf5760006040517f94280d62000000000000000000000000000000000000000000000000000000008152600401610bc691906111c5565b60405180910390fd5b81600160008673ffffffffffffffffffffffffffffffffffffffff1673ffffffffffffffffffffffffffffffffffffffff16815260200190815260200160002060008573ffffffffffffffffffffffffffffffffffffffff1673ffffffffffffffffffffffffffffffffffffffff168152602001908152602001600020819055508015610cbc578273ffffffffffffffffffffffffffffffffffffffff168473ffffffffffffffffffffffffffffffffffffffff167f8c5be1e5ebec7d5bd14f71427d1e84f3dd0314c0f7b2291e5b200ac8c7c3b92584604051610cb391906110b7565b60405180910390a35b50505050565b600073ffffffffffffffffffffffffffffffffffffffff168373ffffffffffffffffffffffffffffffffffffffff1603610d14578060026000828254610d0891906112af565b92505081905550610de7565b60008060008573ffffffffffffffffffffffffffffffffffffffff1673ffffffffffffffffffffffffffffffffffffffff16815260200190815260200160002054905081811015610da0578381836040517fe450d38c000000000000000000000000000000000000000000000000000000008152600401610d979392919061134f565b60405180910390fd5b8181036000808673ffffffffffffffffffffffffffffffffffffffff1673ffffffffffffffffffffffffffffffffffffffff16815260200190815260200160002081905550505b600073ffffffffffffffffffffffffffffffffffffffff168273ffffffffffffffffffffffffffffffffffffffff1603610e305780600260008282540392505081905550610e7d565b806000808473ffffffffffffffffffffffffffffffffffffffff1673ffffffffffffffffffffffffffffffffffffffff168152602001908152602001600020600082825401925050819055505b8173ffffffffffffffffffffffffffffffffffffffff168373ffffffffffffffffffffffffffffffffffffffff167fddf252ad1be2c89b69c2b068fc378daa952ba7f163c4a11628f55a4df523b3ef83604051610eda91906110b7565b60405180910390a3505050565b600081519050919050565b600082825260208201905092915050565b60005b83811015610f21578082015181840152602081019050610f06565b60008484015250505050565b6000601f19601f8301169050919050565b6000610f4982610ee7565b610f538185610ef2565b9350610f63818560208601610f03565b610f6c81610f2d565b840191505092915050565b60006020820190508181036000830152610f918184610f3e565b905092915050565b600080fd5b600073ffffffffffffffffffffffffffffffffffffffff82169050919050565b6000610fc982610f9e565b9050919050565b610fd981610fbe565b8114610fe457600080fd5b50565b600081359050610ff681610fd0565b92915050565b6000819050919050565b61100f81610ffc565b811461101a57600080fd5b50565b60008135905061102c81611006565b92915050565b6000806040838503121561104957611048610f99565b5b600061105785828601610fe7565b92505060206110688582860161101d565b9150509250929050565b60008115159050919050565b61108781611072565b82525050565b60006020820190506110a2600083018461107e565b92915050565b6110b181610ffc565b82525050565b60006020820190506110cc60008301846110a8565b92915050565b6000806000606084860312156110eb576110ea610f99565b5b60006110f986828701610fe7565b935050602061110a86828701610fe7565b925050604061111b8682870161101d565b9150509250925092565b600060ff82169050919050565b61113b81611125565b82525050565b60006020820190506111566000830184611132565b92915050565b60006020828403121561117257611171610f99565b5b60006111808482850161101d565b91505092915050565b60006020828403121561119f5761119e610f99565b5b60006111ad84828501610fe7565b91505092915050565b6111bf81610fbe565b82525050565b60006020820190506111da60008301846111b6565b92915050565b600080604083850312156111f7576111f6610f99565b5b600061120585828601610fe7565b925050602061121685828601610fe7565b9150509250929050565b7f4e487b7100000000000000000000000000000000000000000000000000000000600052602260045260246000fd5b6000600282049050600182168061126757607f821691505b60208210810361127a57611279611220565b5b50919050565b7f4e487b7100000000000000000000000000000000000000000000000000000000600052601160045260246000fd5b60006112ba82610ffc565b91506112c583610ffc565b92508282019050808211156112dd576112dc611280565b5b92915050565b7f4d617820737570706c7920657863656564656400000000000000000000000000600082015250565b6000611319601383610ef2565b9150611324826112e3565b602082019050919050565b600060208201905081810360008301526113488161130c565b9050919050565b600060608201905061136460008301866111b6565b61137160208301856110a8565b61137e60408301846110a8565b94935050505056fea2646970667358221220f685db9215909b10bcc9028be9e5429e81b72aa58af8eb8cf654083a5a2bec1b64736f6c634300081c0033",
  "linkReferences": {},
  "deployedLinkReferences": {}
}